{
  "contractName": "CryptoCookies",
  "abi": [
    {
      "constant": false,
      "inputs": [
        {
          "name": "_websiteName",
          "type": "string"
        },
        {
          "name": "_pixelWidth",
          "type": "uint256"
        },
        {
          "name": "_pixelHeight",
          "type": "uint256"
        }
      ],
      "name": "createAdSpace",
      "outputs": [
        {
          "name": "index",
          "type": "uint256"
        }
      ],
      "payable": false,
      "stateMutability": "nonpayable",
      "type": "function"
    },
    {
      "constant": true,
      "inputs": [],
      "name": "adIndex",
      "outputs": [
        {
          "name": "",
          "type": "uint256"
        }
      ],
      "payable": false,
      "stateMutability": "view",
      "type": "function"
    },
    {
      "constant": true,
      "inputs": [
        {
          "name": "",
          "type": "uint256"
        }
      ],
      "name": "adSpaces",
      "outputs": [
        {
          "name": "creator",
          "type": "address"
        },
        {
          "name": "id",
          "type": "uint256"
        },
        {
          "name": "websiteName",
          "type": "string"
        },
        {
          "name": "pixelWidth",
          "type": "uint256"
        },
        {
          "name": "pixelHeight",
          "type": "uint256"
        },
        {
          "name": "clicks",
          "type": "uint256"
        }
      ],
      "payable": false,
      "stateMutability": "view",
      "type": "function"
    },
    {
      "constant": true,
      "inputs": [
        {
          "name": "_id",
          "type": "uint256"
        }
      ],
      "name": "getAdSpace",
      "outputs": [
        {
          "name": "",
          "type": "string"
        },
        {
          "name": "",
          "type": "uint256"
        }
      ],
      "payable": false,
      "stateMutability": "view",
      "type": "function"
    },
    {
      "constant": false,
      "inputs": [
        {
          "name": "_id",
          "type": "uint256"
        }
      ],
      "name": "adClicked",
      "outputs": [],
      "payable": false,
      "stateMutability": "nonpayable",
      "type": "function"
    },
    {
      "inputs": [],
      "payable": false,
      "stateMutability": "nonpayable",
      "type": "constructor"
    }
  ],
  "bytecode": "0x6060604052341561000f57600080fd5b6000808190555061075b806100256000396000f30060606040526004361061006d576000357c0100000000000000000000000000000000000000000000000000000000900463ffffffff168063784c94f814610072578063b0b9150f146100f5578063e7c67fe71461011e578063ef3a7fec14610226578063fada4409146102c9575b600080fd5b341561007d57600080fd5b6100df600480803590602001908201803590602001908080601f016020809104026020016040519081016040528093929190818152602001838380828437820191505050505050919080359060200190919080359060200190919050506102ec565b6040518082815260200191505060405180910390f35b341561010057600080fd5b61010861040a565b6040518082815260200191505060405180910390f35b341561012957600080fd5b61013f6004808035906020019091905050610410565b604051808773ffffffffffffffffffffffffffffffffffffffff1673ffffffffffffffffffffffffffffffffffffffff168152602001868152602001806020018581526020018481526020018381526020018281038252868181546001816001161561010002031660029004815260200191508054600181600116156101000203166002900480156102125780601f106101e757610100808354040283529160200191610212565b820191906000526020600020905b8154815290600101906020018083116101f557829003601f168201915b505097505050505050505060405180910390f35b341561023157600080fd5b610247600480803590602001909190505061047a565b6040518080602001838152602001828103825284818151815260200191508051906020019080838360005b8381101561028d578082015181840152602081019050610272565b50505050905090810190601f1680156102ba5780820380516001836020036101000a031916815260200191505b50935050505060405180910390f35b34156102d457600080fd5b6102ea6004808035906020019091905050610553565b005b60008060008154809291906001019190505550600180548060010182816103139190610586565b9160005260206000209060060201600060c0604051908101604052803373ffffffffffffffffffffffffffffffffffffffff16815260200160005481526020018881526020018781526020018681526020016000815250909190915060008201518160000160006101000a81548173ffffffffffffffffffffffffffffffffffffffff021916908373ffffffffffffffffffffffffffffffffffffffff1602179055506020820151816001015560408201518160020190805190602001906103dc9291906105b8565b50606082015181600301556080820151816004015560a0820151816005015550505060005490509392505050565b60005481565b60018181548110151561041f57fe5b90600052602060002090600602016000915090508060000160009054906101000a900473ffffffffffffffffffffffffffffffffffffffff169080600101549080600201908060030154908060040154908060050154905086565b610482610638565b60008060018481548110151561049457fe5b90600052602060002090600602019050806002018160050154818054600181600116156101000203166002900480601f0160208091040260200160405190810160405280929190818152602001828054600181600116156101000203166002900480156105425780601f1061051757610100808354040283529160200191610542565b820191906000526020600020905b81548152906001019060200180831161052557829003601f168201915b505050505091509250925050915091565b60018181548110151561056257fe5b90600052602060002090600602016005016000815480929190600101919050555050565b8154818355818115116105b3576006028160060283600052602060002091820191016105b2919061064c565b5b505050565b828054600181600116156101000203166002900490600052602060002090601f016020900481019282601f106105f957805160ff1916838001178555610627565b82800160010185558215610627579182015b8281111561062657825182559160200191906001019061060b565b5b50905061063491906106c2565b5090565b602060405190810160405280600081525090565b6106bf91905b808211156106bb57600080820160006101000a81549073ffffffffffffffffffffffffffffffffffffffff0219169055600182016000905560028201600061069a91906106e7565b60038201600090556004820160009055600582016000905550600601610652565b5090565b90565b6106e491905b808211156106e05760008160009055506001016106c8565b5090565b90565b50805460018160011615610100020316600290046000825580601f1061070d575061072c565b601f01602090049060005260206000209081019061072b91906106c2565b5b505600a165627a7a72305820c3e0c1b68a4b0b9cbfa5f18f6336c8e8b28f64d29e3a941da07873a342f453820029",
  "source": "pragma solidity 0.4.18;\ncontract CryptoCookies {\n    uint public adIndex; \n    \n    \n    struct AdSpace {\n        address creator;\n        uint id;\n        string websiteName;\n        uint pixelWidth;\n        uint pixelHeight;\n        uint clicks;\n    }\n    \n    function CryptoCookies() public{\n        adIndex = 0;\n    }\n    \n    \n    AdSpace[] public adSpaces;\n    function createAdSpace(string _websiteName, uint _pixelWidth, uint _pixelHeight) public returns(uint index){\n        adIndex ++;\n        adSpaces.push(AdSpace(msg.sender, adIndex, _websiteName, _pixelWidth, _pixelHeight, 0));\n       return adIndex;    \n    }\n\n    function getAdSpace(uint _id) public view returns(string, uint) {\n        AdSpace storage thisAd =  adSpaces[_id];\n        return (thisAd.websiteName, thisAd.clicks);\n         \n    }\n\n    function adClicked(uint _id) public  {\n        adSpaces[_id].clicks ++;\n    }\n     \n}",
  "sourcePath": "/Users/temitopealabi/Documents/dapps/CryptoCookies/contracts/CryptoCookies.sol",
  "compiler": {
    "name": "solc",
    "version": "0.4.18+commit.9cf6e910.Emscripten.clang"
  },
  "schemaVersion": "1.0.1",
  "updatedAt": "2018-01-08T22:48:50.277Z"
}